:020000040800F2
:1000000000800120C92600081927000819270008C8
:100010001927000819270008192700080000000008
:100020000000000000000000000000001927000888
:10003000192700080000000019270008F101000836
:100040001927000819270008192700081927000890
:100050001927000819270008192700081927000880
:100060001927000819270008192700081927000870
:100070001927000819270008192700081927000860
:100080001927000819270008192700080000000098
:100090000000000000000000000000001927000818
:1000A0001927000819270008192700081927000830
:1000B0001927000819270008192700081927000820
:1000C0001927000819270008192700081927000810
:1000D0001927000819270008192700080000000048
:1000E0001927000819270008192700080000000038
:1000F00000000000000000000000000019270008B8
:100100000000000019270008192700081927000817
:1001100000000000000000000000000000000000DF
:1001200019270008192700081927000819270008AF
:100130001927000800000000000000000000000077
:100140000000000000000000000000001927000867
:10015000192700081927000819270008192700087F
:1001600019270008192700080000000000000000FF
:10017000000000000000000000000000000000007F
:100180000000000019270008000000000000000027
:040190001927000823
:1001940010B5054C237833B9044B13B10448AFF3BD
:1001A40000800123237010BD040000200000000023
:1001B40068270008084B10B51BB108490848AFF37D
:1001C40000800848036803B910BD074B002BFBD01F
:1001D400BDE81040184700BF0000000008000020E0
:1001E40068270008040000200000000008B500F0A3
:1001F4008BFD02F063FA08BD90F83D30DBB2202B92
:100204001AD1242380F83D300268136823F00103D7
:1002140013600268536A23F01003536203685A6A36
:10022400114359620268136843F0010313602023E9
:1002340080F83D3000207047022070472DE9F043DC
:100244008BB0002401943C4B1A6B42F004021A63F5
:100254001A6B02F004020192019A02941A6B42F0A2
:1002640080021A631A6B02F080020292029A0394CB
:100274001A6B42F001021A631A6B02F00102039234
:10028400039A04941A6B42F002021A631B6B03F084
:1002940002030493049BDFF8AC90224620214846D5
:1002A40001F052FEDFF8A08022460821404601F00A
:1002B4004BFE224D22464FF48071284601F044FE45
:1002C40022464FF40071284601F03EFE4FF40053DD
:1002D40005931B4B0693079405A9284601F05EFD80
:1002E400202305930127069707940226089605A95B
:1002F400484601F053FD4FF4807305930697079425
:10030400089605A9284601F049FD08230593069798
:100314000794089605A9404601F040FD4FF4007388
:10032400059306970794089605A9284601F036FD1B
:100334000BB0BDE8F08300BF003802400008024063
:10034400000021100000024000040240FEE700BF4C
:1003540008B50B480B4B03604FF4E13343600023B3
:100364008360C36003610C2242618361C36101F055
:1003740071FC20B140F25F110348FFF7E7FF08BDAD
:1003840074000020001001408027000808B50B48C5
:100394000B4B03600B4B436000238360C36003611A
:1003A4000C2242618361C36101F054FC20B140F22C
:1003B40087110548FFF7CAFF08BD00BFB40000203D
:1003C4000014014060E316008027000808B50B48BC
:1003D4000B4B03604FF4E133436000238360C3603D
:1003E40003610C2242618361C36101F033FC20B1DB
:1003F40040F273110348FFF7A9FF08BDF400002081
:10040400004400408027000808B50D480D4B0360E8
:100414000D4B43600023C3604FF48042026143618B
:100424008361C361036200F0B7FE20B14FF4A5718C
:100434000648FFF78BFF00210148FFF7DDFE08BDEA
:100444002000002000540040801A06008027000885
:1004540000B595B0002201922B4B196C41F08051EC
:1004640019641B6C03F080530193019B029227498A
:100474000B6823F4404343F400430B600B6803F41C
:1004840040430293029B0221089101230B93102302
:100494000C930E910F9210934FF4A87311930423AD
:1004A40012930723139308A801F058FD20B14FF4C9
:1004B4008F711748FFF74AFF0F230393022104911A
:1004C400002305934FF480520692079303A801F08A
:1004D4007BFF20B14FF496710D48FFF737FF02F010
:1004E4004BF80C4BA3FB0030400B02F0BFF8042088
:1004F40002F0D2F8002211464FF0FF3002F084F8E7
:1005040015B05DF804FB00BF0038024000700040E5
:10051400802700085917B7D1F0B599B05C4B14ACDB
:100524000FCB07C424F8023B1B0C23700FAC594DAE
:100534000FCD0FC42B68237000F0CCFBFFF788FFAE
:10054400FFF77CFEFFF704FFFFF720FFFFF73EFFF6
:10055400FFF75AFF01224FF480714F4801F0F4FC79
:100564000323009300224D494D4800F00BFA38B99B
:100574004FF0FF330F2214A94A4801F09DFB06E017
:100584004FF0FF3311220FA9464801F095FB464E68
:1005940001270C976C4606F110050FCD0FC40FCD43
:1005A4000FC495E80F0084E80F0096E80F0000F0F0
:1005B40005F93E4E0C976C4606F110050FCD0FC49D
:1005C4000FCD0FC495E80F0084E80F0096E80F00E4
:1005D40000F0F4F8314D324C2946204600F02CFA54
:1005E4002946204600F060FA4FF400512A4801F0F1
:1005F400A3FCA0B92D4E01230C936C4606F1100503
:100604000FCD0FC40FCD0FC495E80F0084E80F0081
:1006140096E80F0000F0D2F8642000F083FB1F4935
:100624001F4800F041FA214F00230D9301260C9638
:100634006D4607F110040FCC0FC50FCC0FC594E81D
:100644000F0085E80F0097E80F0000F06FF84FF4F3
:100654007A7000F067FB4FF4FA730D930C966D46B5
:1006640007F110060FCE0FC50FCE0FC594E80F008B
:1006740085E80F0097E80F0000F058F84FF47A70FF
:1006840000F050FB4FF40071034801F063FCABE74A
:100694008C2700089C270008000802403401002031
:1006A40020000020F400002074000020B40000208A
:1006B40084B000B583B00DF1100E8EE80F0008234E
:1006C4008DF8003004238DF8013000228DF80220CB
:1006D4009DF850308DF80330BDF854308DF8043057
:1006E4009DF858308DF8053001238DF806301346F7
:1006F40007E002A9194411F8081C0A44D2B20133D4
:10070400DBB2062BF5D98DF807204FF0FF33082212
:10071400694604A801F0D0FA012000F003FB002090
:1007240003B05DF804EB04B0704700BF84B000B5BB
:1007340085B00DF1180E8EE80F00BDF95C300C2267
:100744008DF8042004228DF8052000228DF806205F
:100754009DF858108DF807108DF80830C3F307235F
:100764008DF809300A238DF80A308DF80B208DF8A6
:100774000C202A238DF80D3001238DF80E301346FA
:1007840007E004A9194411F80C1C0A44D2B201333D
:10079400DBB20A2BF5D98DF80F204FF0FF330C2272
:1007A40001A906A801F088FA002000F0BBFA002095
:1007B40005B05DF804EB04B0704700BF84B070B5B9
:1007C40090B014AC84E80F0028230E9300260D96F5
:1007D4009DF890300C936C4618AD0FCD0FC40FCD1F
:1007E4000FC495E80F0084E80F0014AB0FCBFFF79C
:1007F4005FFF304610B0BDE8704004B0704700BFE2
:1008040030B585B005460C7819238DF80C308DF879
:100814000D204FF47A730093022303AA214628463D
:1008240000F048FD0028F4D105B030BD2DE9F041B9
:1008340084B00546884617460E781C238DF80E3082
:10084400B4B24FF47A73009301230DF10E022146E2
:10085400284600F02FFD0028F2D14FF47A7300935C
:1008640001230DF10F022146284600F0E3FD002884
:10087400F3D19DF80F3023F0180343EAC7038DF832
:100884000F304FF47A73009301230DF10F022146C8
:10089400284600F00FFD0028F3D1032F16D8DFE817
:1008A40007F002070C114FF06253C8F808300DE04E
:1008B4004FF06453C8F8083008E04FF06653C8F8A6
:1008C400083003E04FF06853C8F80830002004B043
:1008D400BDE8F0812DE9F04184B00546884617460D
:1008E4000E781B238DF80E30B4B24FF47A73009354
:1008F40001230DF10E022146284600F0DBFC0028FE
:10090400F2D14FF47A73009301230DF10F022146C3
:10091400284600F08FFD0028F3D19DF80F3023F016
:10092400180343EAC7038DF80F304FF47A7300932A
:1009340001230DF10F022146284600F0BBFC0028DC
:10094400F3D1032F12D8DFE807F002060A0E094B91
:10095400C8F804300AE0084BC8F8043006E0074B36
:10096400C8F8043002E0064BC8F80430002004B094
:10097400BDE8F0812D23FA3B2D237A3C90C1F93C4C
:1009840090C1793DF0B585B006460D461F467523E6
:100994008DF80F3042F0D0020A7094B2052302227F
:1009A400214600F0C7FED8BB4FF47A7300930123AD
:1009B4000DF10F022146304600F07CFC90BB4FF451
:1009C4007A73009301230DF10E022146304600F0A4
:1009D40031FD48BB9DF80E30682B27D16B238DF871
:1009E4000C3000238DF80D304FF47A7300930223FA
:1009F40003AA2146304600F05DFCC8B90722294607
:100A04003046FFF7FDFE3A4629463046FFF70EFF13
:100A14009DF8282029463046FFF75CFF002008E0B7
:100A2400012006E0012004E0012002E0032000E0B0
:100A3400012005B0F0BD00BFF0B587B005460F46F4
:100A44003B238DF80F300E78B4B24FF47A730093D1
:100A540001230DF10F022146284600F02BFC00284B
:100A6400F2D14FF47A730093062304AA2146284650
:100A740000F0E0FC0028F4D19DF810209DF811301E
:100A840043EA0223BB819DF812209DF8133043EA08
:100A94000223FB819DF814209DF8153043EA0223BC
:100AA4003B8207B0F0BD00BFF0B587B005460F46E6
:100AB40043238DF80F300E78B4B24FF47A73009359
:100AC40001230DF10F022146284600F0F3FB002814
:100AD400F2D14FF47A730093062304AA21462846E0
:100AE40000F0A8FC0028F4D19DF810209DF81130E6
:100AF40043EA02237B829DF812209DF8133043EAD7
:100B04000223BB829DF814209DF8153043EA02238A
:100B1400FB8207B0F0BD00BF08B5072001F062FDFD
:100B2400002211466FF00B0001F06EFD0022114609
:100B34006FF00A0001F068FD002211466FF0090011
:100B440001F062FD002211466FF0040001F05CFD2B
:100B5400002211466FF0030001F056FD00221146F9
:100B64006FF0010001F050FD002211464FF0FF30FC
:100B740001F04AFD08BD00BF0268124B9A4220D121
:100B840000B587B04FF440730193122302930123FD
:100B9400039303230493042305930DEB03010A48F1
:100BA40001F0FCF800230093084B1A6C42F4001285
:100BB4001A641B6C03F400130093009B07B05DF8E8
:100BC40004FB704700540040000402400038024017
:100BD40000B589B003682E4A93421BD100230093C9
:100BE4002C4B5A6C42F010025A645B6C03F01003F5
:100BF4000093009B4FF4C0630393022304930123E7
:100C04000593032306930723079303A9224801F0BE
:100C1400C5F839E0214A934219D10023019302F522
:100C2400FA32116C41F400311164126C02F4003296
:100C34000192019A0C2203920222049205930693D4
:100C44000723079303A9144801F0A8F81CE0144AE9
:100C5400934219D1002302930E4B5A6C42F02002A6
:100C64005A645B6C03F020030293029BC02303933A
:100C74000223049301230593032306930823079374
:100C840003A9084801F08AF809B05DF804FB00BF25
:100C940000100140003802400000024000440040BF
:100CA400001401400008024010B50446074B1B68BD
:100CB4000748A0FB0330800901F0D8FC002221463C
:100CC4004FF0FF3001F0A0FC002010BD0000002018
:100CD400D34D621008B50B4B1A6842F400721A60C7
:100CE4001A6842F480621A601A6842F480721A60C8
:100CF400032001F077FC0020FFF7D6FFFFF70CFF7D
:100D0400002008BD003C0240024A1368013313600E
:100D1400704700BF50010020014B1868704700BFA6
:100D24005001002030B583B00190FFF7F5FF054670
:100D3400019CB4F1FF3F00D00134FFF7EDFF401BED
:100D4400A042FAD303B030BD0F49D1F8883043F440
:100D54007003C1F888300D4B1A6842F001021A6022
:100D6400002098601A6822F0847222F480321A609B
:100D7400074A5A601A6822F480221A60D8604FF039
:100D840000638B60704700BF00ED00E00038024054
:100D94001030002403685A6912F4806F0DD06FF488
:100DA40080625A610423036400230363202280F8D1
:100DB4003D2080F83C30012070470020704700BF80
:100DC400F8B506460C4617461D4614E0B5F1FF3F3C
:100DD40011D02DB1FFF7A0FF069BC01A85420AD29D
:100DE40000233363202286F83D2086F83E3086F8BF
:100DF4003C300320F8BDC4F30743012B08D133680A
:100E04005B6924EA03039BB2B3FA83F35B0907E04B
:100E140033689B6924EA03039BB2B3FA83F35B0947
:100E2400BB42D3D00020F8BDF8B504460D461646A3
:100E34001F4629E023685A6912F4806F12D01A6899
:100E440042F400721A6023686FF480625A610423CA
:100E5400236400232363202284F83D2084F83C305B
:100E64000120F8BDB6F1FF3F0ED026B1FFF754FFC5
:100E7400C01B864208D200232363202284F83D202D
:100E840084F83C300320F8BDC5F30743012B08D197
:100E940023685B6925EA03039BB2003318BF01236F
:100EA40007E023689B6925EA03039BB2003318BF5C
:100EB4000123002BBED10020F8BD00BFF0B583B0E4
:100EC40004460F4615461E46C36A042B04D0012B64
:100ED40002D013F5803F05D12268136843F4807370
:100EE400136007E0036B122B04D10268136843F408
:100EF4008073136000962B4600224FF001112046A8
:100F0400FFF75EFF58BB2369B3F5804F04D1236814
:100F140007F0FE071F6115E02268FB1103F00603CA
:100F240043F0F003136133462A4611492046FFF784
:100F34007BFF20B1236C042B13D1012314E023681D
:100F4400FFB21F6133462A460A492046FFF76CFF69
:100F5400034648B1236C042B05D1012304E0032389
:100F640002E0032300E00323184603B0F0BD00BFF2
:100F740008000100020001002DE9F04184B004469C
:100F84000F4615461E46C26A01680B6843F4806327
:100F94000B60042A04D0012A02D012F5803F05D147
:100FA4002268136843F48073136007E0036B112B0A
:100FB40004D10268136843F48073136000962B46CF
:100FC40000224FF001112046FFF7FAFE002851D10C
:100FD4002369B3F5804F05D1236847F00107FFB2B9
:100FE4001F613AE023684FEAE71808F0060848F062
:100FF400F0021A6133462A4625492046FFF714FFBA
:1010040020B1236C042B37D101233CE02368FFB2C9
:101014001F6133462A461F492046FFF705FF20B1CA
:10102400236C042B2AD101232DE000220392236890
:1010340059690391996903910399196841F480717D
:10104400196000962B464FF001112046FFF7B8FEB9
:10105400B0B9226848F0F103136133462A460D49BA
:101064002046FFF7E1FE034668B1236C042B09D147
:10107400012308E0032306E0032304E0032302E042
:10108400032300E00323184604B0BDE8F08100BF49
:10109400080001000200010070B504460D46164622
:1010A40019E02046FFF776FEE0B9B5F1FF3F12D014
:1010B40025B1FFF731FE801B85420CD2236C43F02F
:1010C4002003236400232363202284F83D2084F832
:1010D4003C30032070BD23685B6913F0800FE0D0BF
:1010E400002070BD012070BD70B504460D46164643
:1010F40019E02046FFF74EFEE0B9B5F1FF3F12D0EC
:1011040025B1FFF709FE801B85420CD2236C43F006
:101114002003236400232363202284F83D2084F8E1
:101124003C30032070BD23685B6913F0040FE0D0EA
:10113400002070BD012070BD70B505460C461646F2
:1011440022E05A6912F0100F0CD06FF010025A61AD
:1011540000232B642B63202285F83D2085F83C3046
:10116400012070BD24B1FFF7D7FD801B84420BD250
:101174002B6C43F020032B64202385F83D3000239F
:1011840085F83C30032070BD2B685A6912F0400F7B
:10119400D7D0002070BD00BF002800F0838038B590
:1011A400044690F83D3013F0FF0F04D1002380F87B
:1011B4003C30FFF7E1FC242384F83D3022681368B7
:1011C40023F00103136001F0DDF9374BA3FB002387
:1011D4009B0C2268536021686568344A954201D8A3
:1011E400013308E04FF4967202FB03F3304AA2FB8A
:1011F40003239B0901330B62216863682B4A9342E2
:1012040008D85B00B0FBF3F0C0F30B03032B2BD81F
:10121400042029E0A5684DB903EB4302B0FBF2F2C8
:10122400C2F30B02B2FA82F252090AE003EB830220
:1012340002EB8202B0FBF2F2C2F30B02B2FA82F2C8
:10124400520982B935B903EB4303B0FBF3F040F420
:10125400004009E003EB830303EB8303B0FBF3F0EB
:1012640040F4404000E00120C8612268E169236A3B
:101274000B43136022682169E3680B43936022687F
:101284006169A3690B43D3602268136843F00103C7
:10129400136000202064202384F83D30206384F808
:1012A4003E0038BD0120704783DE1B43A086010049
:1012B400D34D62102DE9F04184B004460D469046AA
:1012C4001F46FFF729FD94F83D30DBB2202B40F098
:1012D400A280064600901923012255492046FFF7B3
:1012E4006FFD002840F0998094F83C30012B00F009
:1012F4009680012384F83C3023681A6812F0010FA9
:1013040003D11A6842F001021A602268136823F4B8
:1013140000631360212384F83D30102384F83E30A9
:1013240000232364C4F824806785A3F58033E36233
:10133400638D238533460A9A29462046FFF7BEFD6E
:10134400054660B1236C042B04D1002384F83C309F
:10135400012569E0002384F83C30032564E0002380
:10136400039323685A6903929B690393039B41E0A7
:1013740032460A992046FFF78FFE48B1236C042BAE
:101384004FD12268136843F40073136001254BE0C6
:101394002268636A591C61621B781361638D9BB276
:1013A400013B9BB26385238D013B9BB2238522685D
:1013B400516911F0040F0DD063B1636A591C616265
:1013C4001B781361638D9BB2013B9BB26385238DB4
:1013D400013B238532460A992046FFF785FE48B132
:1013E400236C042B1FD12268136843F40073136029
:1013F400012519E0238D002BBAD12268136843F428
:1014040000731360202384F83D30002384F83E30B9
:1014140084F83C3008E0022506E0022504E00225B9
:1014240002E0032500E00325284604B0BDE8F0816E
:10143400020010002DE9F04186B004460D469046A6
:101444001F46FFF769FC94F83D30DBB2202B40F0D7
:101454005E81064600901923012294492046FFF735
:10146400AFFC002840F0558194F83C30012B00F08B
:101474005281012384F83C3023681A6812F0010F6A
:1014840003D11A6842F001021A602268136823F437
:1014940000631360222384F83D30102384F83E3027
:1014A40000232364C4F824806785A3F58033E362B2
:1014B400638D238533460C9A29462046FFF75CFD4D
:1014C400054660B1236C042B04D1002384F83C301E
:1014D40001252BE1002384F83C30032526E1238DEC
:1014E4005BB9029323685A6902929A690292029A3A
:1014F4001A6842F400721A60FCE0012B11D12268D0
:10150400136823F4806313600023039323685A69E8
:1015140003929A690392039A1A6842F400721A6059
:10152400E8E0022B12D12268136823F4806313606D
:101534002268136843F40063136000230493236850
:101544005A6904929B690493049BD3E0226813684C
:1015540043F4806313600023059323685A6905925A
:101564009B690593059BC5E0032B00F29380012B37
:101574001AD132460C992046FFF7DEFD28B1236CC0
:10158400202B40F0CA800325D0E0636A5A1C6262B3
:10159400226812691A70238D013B2385638D9BB2E7
:1015A400013B9BB26385A5E0022B2BD100960C9BDB
:1015B40000223F492046FFF703FC002840F0AF809B
:1015C4002268136843F400731360636A5A1C6262EE
:1015D400226812691A70238D013B2385638D9BB2A7
:1015E400013B9BB26385636A5A1C6262226812697A
:1015F4001A70238D013B2385638D9BB2013B9BB203
:10160400638577E000960C9B002229492046FFF76A
:10161400D7FB002840F085802268136823F4806398
:101624001360636A5A1C6262226812691A70238DFD
:10163400013B2385638D9BB2013B9BB2638500967E
:101644000C9B00221A492046FFF7BAFB00286AD1F6
:101654002268136843F400731360636A5A1C62625D
:10166400226812691A70238D013B2385638D9BB216
:10167400013B9BB26385636A5A1C626222681269E9
:101684001A70238D013B2385638D9BB2013B9BB272
:1016940063852FE032460C992046FFF74DFD48B193
:1016A400236C202B41D1032540E000BF0200100031
:1016B40004000100636A5A1C6262226812691A708B
:1016C400238D013B2385638D9BB2013B9BB26385D4
:1016D40023685A6912F0040F0CD0626A511C6162CB
:1016E4001B691370238D013B2385638D9BB2013BE2
:1016F4009BB26385238D002B7FF436AF202384F8BF
:101704003D30002384F83E3084F83C300EE002255E
:101714000CE002250AE0022508E0012506E0032585
:1017240004E0032502E0032500E00125284606B075
:10173400BDE8F0812DE9F04385B004460F4690469C
:101744001D46FFF7E9FA94F83D30DBB2202B40F058
:10175400A580064600901923012258492046FFF728
:101764002FFB002840F09C8094F83C30012B00F0C3
:101774009980012384F83C3023681A6812F0010F21
:1017840003D11A6842F001021A602268136823F434
:1017940000631360242384F83D3000232364A3F5FD
:1017A4008033E3624FF0010900E099462268136830
:1017B40043F48073136000962B4600224FF001110E
:1017C4002046FFF7FDFA00286ED1236807F0FE02D9
:1017D4001A61FFF7A1FA064622685369C3F340036E
:1017E4005269C2F3802294F83D10C9B212E025B1C7
:1017F400FFF792FA801B854202D2A02384F83D3081
:1018040022685369C3F340035269C2F3802294F8F7
:101814003D10C9B213B90AB9A029E8D1202384F82C
:101824003D3023685A6912F0020F1BD01A6842F443
:1018340000721A600023039323685A6903929B6918
:101844000393039B0096192301221C492046FFF7AA
:10185400B7FA034650BB202284F83D20002284F8C6
:101864003C2026E01A6842F400721A6023686FF480
:1018740080625A6100961923012210492046FFF71D
:101884009FFAA8B909F10103C1458ED3202384F836
:101894003D30002384F83C3001230AE0022308E0B1
:1018A400022306E0022304E0032302E0032300E012
:1018B4000323184605B0BDE8F08300BF0200100002
:1018C4002DE9F843044601680B6923F44052C368C8
:1018D40013430B610068C36823F4164222F00C0220
:1018E400A1682369194363691943E3690B431343EB
:1018F400C36021684B6923F44072A36913434B61AD
:10190400E369B3F5004F40F0BB80276803F18043DF
:1019140003F510439F4203D003F580639F4257D1E0
:1019240000F048FE00EB800000EB800065686D006D
:10193400B0FBF5F5AB4EA6FB05356D092D0100F0A6
:1019440039FE00EB800000EB800063685B00B0FBB5
:10195400F3F900F02FFE00EB800000EB80006368D9
:101964005B00B0FBF3F3A6FB03235B094FF06408B1
:1019740008FB1393DB003233A6FB03235B095B00F4
:1019840003F4F8731D4400F015FE00EB800000EB37
:10199400800063685B00B0FBF3F900F00BFE00EB22
:1019A400800000EB800063685B00B0FBF3F3A6FBF0
:1019B40003235B0908FB13984FEAC80808F13208AF
:1019C400A6FB0836C6F342163544BD60BDE8F8836D
:1019D40000F0D8FD00EB800000EB800065686D002E
:1019E400B0FBF5F57F4EA6FB05356D092D0100F022
:1019F400C9FD00EB800000EB800063685B00B0FB76
:101A0400F3F900F0BFFD00EB800000EB8000636899
:101A14005B00B0FBF3F3A6FB03235B094FF0640800
:101A240008FB1393DB003233A6FB03235B095B0043
:101A340003F4F8731D4400F0A5FD00EB800000EBF7
:101A4400800063685B00B0FBF3F900F09BFD00EBE2
:101A5400800000EB800063685B00B0FBF3F3A6FB3F
:101A640003235B0908FB13984FEAC80808F13208FE
:101A7400A6FB0836C6F342163544BD60BDE8F883BC
:101A84002668594B9E4203D003F580639E4254D18D
:101A940000F090FD00EB800000EB80006568AD0075
:101AA400B0FBF5F54F4FA7FB05356D092D0100F08F
:101AB40081FD00EB800000EB800063689B00B0FBBD
:101AC400F3F800F077FD00EB800000EB8000636822
:101AD4009B00B0FBF3F3A7FB03235B094FF06409FE
:101AE40009FB13831B013233A7FB03235B0903F0B8
:101AF400F0031D4400F05EFD00EB800000EB80006D
:101B040063689B00B0FBF3F800F054FD00EB800029
:101B140000EB800063689B00B0FBF3F3A7FB032397
:101B24005B0909FB13831B013233A7FB0323C3F3B4
:101B340043131D44B560BDE8F88300F023FD00EBBA
:101B4400800000EB80006568AD00B0FBF5F5254F23
:101B5400A7FB05356D092D0100F014FD00EB800095
:101B640000EB800063689B00B0FBF3F800F00AFD13
:101B740000EB800000EB800063689B00B0FBF3F394
:101B8400A7FB03235B094FF0640909FB13831B01C3
:101B94003233A7FB03235B0903F0F0031D4400F079
:101BA400F1FC00EB800000EB800063689B00B0FB5D
:101BB400F3F800F0E7FC00EB800000EB80006368C2
:101BC4009B00B0FBF3F3A7FB03235B0909FB13831F
:101BD4001B013233A7FB0323C3F343131D44B56036
:101BE400BDE8F8831F85EB51001001402DE9F04159
:101BF40005460F4616469846069C1EE0B4F1FF3F84
:101C04001BD02CB1FFF788F8C8EB0000844214D233
:101C14002A68D36823F4D073D3602A68536923F005
:101C240001035361202385F8393085F83A300023C5
:101C340085F838300320BDE8F0812B681B6837EA4B
:101C440003030CBF01230023B342D7D00020BDE817
:101C5400F08100BF68B310B5044690F8393013F032
:101C6400FF0F04D1002380F83830FEF7B1FF24239E
:101C740084F839302268D36823F40053D3602046B3
:101C8400FFF71EFE2268136923F490431361226850
:101C9400536923F02A0353612268D36843F4005341
:101CA400D3600020E063202384F8393084F83A308C
:101CB40010BD0120704700BF2DE9F04182B01E46DF
:101CC40090F83930DBB2202B56D104460D469046AD
:101CD400002953D0002A53D090F83830012B51D02A
:101CE400012380F838300023C363212380F839307E
:101CF400FFF712F80746A4F82480A4F8268027E00A
:101D0400E38C9BB2013B9BB2E384A368B3F5805F91
:101D140012D100963B46002280212046FFF766FF41
:101D240090BB22682B88C3F30803536023690BB963
:101D340002350DE001350BE000963B460022802180
:101D44002046FFF753FF08BB23682A785A60013501
:101D5400E38C9BB2002BD3D100963B46002240215A
:101D64002046FFF743FF034690B9202284F8392028
:101D7400002284F838200CE002230AE0012308E062
:101D8400012306E0022304E0032302E0032300E02E
:101D94000323184602B0BDE8F08100BFF0B583B05C
:101DA4000024BBE00123A3400A6803EA0205AB4216
:101DB40040F0B3804A68022A01D0122A10D1E60802
:101DC400083650F826C004F0070297000F22BA40E4
:101DD4002CEA020E0A69BA404EEA020240F82620B2
:101DE400026867000326BE40F64302EA060E4A680C
:101DF40002F00302BA404EEA020202604A6802F1AB
:101E0400FF3EBEF1010F03D9112A01D0122A10D1CD
:101E1400826806EA020ECA68BA404EEA020282608A
:101E2400426822EA03034A68C2F30012A2401A433A
:101E34004260C3681E408B68BB403343C3604B6839
:101E440013F0805F69D000230193374B5A6C42F43E
:101E540080425A645B6C03F480430193019BA6089F
:101E6400B21C324B53F8222004F003039B000F27CB
:101E74009F4022EA07072E4A904211D002F5806261
:101E840090420FD002F5806290420DD002F580623C
:101E940090420BD002F58062904209D1042208E0FE
:101EA400002206E0012204E0022202E0032200E014
:101EB400072202FA03F33B4302361C4A42F8263057
:101EC4001C4B1A68EB4302EA03064F6817F4803F81
:101ED40001D045EA0206174A1660526803EA020670
:101EE4004F6817F4003F01D045EA0206114A5660D4
:101EF400926803EA02064F6817F4801F01D045EA8E
:101F040002060C4A9660D26813404E6816F4001F0D
:101F140001D045EA0203074AD36001340F2C7FF64F
:101F240041AF03B0F0BD00BF0038024000380140AB
:101F340000000240003C01400369194201D0012025
:101F440070470020704700BF0AB1816170470904DF
:101F540081617047436959404161704730B583B02E
:101F64000446036813F0010F5AD09F4B9B6803F09B
:101F74000C03042B0AD09C4B9B6803F00C03082B26
:101F84000DD1994B5B6813F4800F08D0964B1B68F6
:101F940013F4003F44D06368002B41D19DE1636892
:101FA400B3F5803F05D1904A136843F4803313603E
:101FB40015E0B3F5A02F09D18B4B1A6842F48022A7
:101FC4001A601A6842F480321A6008E0864B1A6874
:101FD40022F480321A601A6822F480221A6063683C
:101FE4007BB1FEF799FE054605E0FEF795FE401B22
:101FF400642800F274817C4B1B6813F4003FF4D016
:102004000EE0FEF789FE054605E0FEF785FE401B5F
:10201400642800F26681744B1B6813F4003FF4D10A
:10202400236813F0020F5AD06F4B9B6813F00C0F08
:102034000AD06D4B9B6803F00C03082B1BD16A4B31
:102044005B6813F4800F16D1674B1B6813F0020F03
:1020540003D0E368012B40F046816348036823F012
:10206400F8012369F82292FAA2F2B2FA82F29340BA
:102074000B43036033E0E368FBB101225B4B1A605E
:10208400FEF74AFE054605E0FEF746FE401B022821
:1020940000F22B81544B1B6813F0020FF4D052480A
:1020A400036823F0F8012369F82292FAA2F2B2FA43
:1020B40082F293400B43036011E000224B4B1A6001
:1020C400FEF72AFE054605E0FEF726FE401B022821
:1020D40000F20D81444B1B6813F0020FF4D1236806
:1020E40013F0080F26D0636993B10122404B1A60A4
:1020F400FEF712FE054605E0FEF70EFE401B022821
:1021040000F2F780384B5B6F13F0020FF4D011E04C
:102114000022374B1A60FEF7FFFD054605E0FEF787
:10212400FBFD401B022800F2E6802F4B5B6F13F08F
:10213400020FF4D1236813F0040F69D00023019334
:10214400294B1A6C42F080521A641B6C03F08053C2
:102154000193019B274A136843F480731360FEF7CD
:10216400DBFD054605E0FEF7D7FD401B022800F223
:10217400C480204B1B6813F4807FF4D0A368012B28
:1021840005D1194A136F43F00103136714E0052BBB
:1021940009D1154B1A6F42F004021A671A6F42F004
:1021A40001021A6708E0104B1A6F22F001021A6745
:1021B4001A6F22F004021A67A3688BB1FEF7ACFD14
:1021C400054607E0FEF7A8FD401B41F2883398421C
:1021D40000F29580044B1B6F13F0020FF2D017E04E
:1021E400FEF79AFD05460EE0003802400000474223
:1021F400800E474200700040FEF78EFD401B41F206
:10220400883398427DD8454B1B6F13F0020FF3D1EE
:10221400A369002B77D0414A926802F00C02082A85
:1022240073D0022B46D100223D4B1A60FEF774FD99
:10223400054604E0FEF770FD401B022867D8374BC3
:102244001B6813F0007FF5D1E169236A1943636ABF
:1022540047F6C07292FAA2F2B2FA82F2934019439C
:10226400A36A5B085A1E4FF4403393FAA3F3B3FAFC
:1022740083F302FA03F30B43E26A4FF0706191FABD
:10228400A1F1B1FA81F18A401343244A5360012237
:10229400234B1A60FEF740FD044604E0FEF73CFDC4
:1022A400001B022835D81D4B1B6813F0007FF5D0A6
:1022B400002031E000221A4B1A60FEF72DFD04467F
:1022C40004E0FEF729FD001B022824D8134B1B68E9
:1022D40013F0007FF5D100201EE001201CE0032054
:1022E4001AE0032018E0012016E0032014E0032084
:1022F40012E0032010E003200EE003200CE0032092
:102304000AE0032008E0002006E0012004E00320A6
:1023140002E0032000E0032003B030BD0038024097
:1023240060004742254B9B6803F00C03042B3FD00D
:10233400082B01D02248704710B4204B586800F095
:102344003F005B6813F4800F10D01E4BB3FBF0F01A
:102354001A4B5A6847F6C0710A4091FAA1F3B3FACE
:1023640083F322FA03F303FB00F310E0144BB3FBF3
:10237400F0F0124B5A6847F6C07402EA040194FA6A
:10238400A4F2B2FA82F221FA02F202FB00F30B4A3F
:10239400506800F440324FF4403090FAA0F0B0FAA4
:1023A40080F022FA00F001304000B3FBF0F001E0CD
:1023B400044870475DF8044B704700BF0038024082
:1023C4000024F40000127A0070B5674B1B6803F018
:1023D4000F038B4208D2CBB2634A1370136803F025
:1023E4000F03994240F0AE80036813F0020F06D049
:1023F4005E4CA36823F0F00283681343A3600D4688
:102404000446036813F0010F60D04268012A05D125
:10241400564B1B6813F4003F0FD195E0931E012B1C
:1024240005D8524B1B6813F0007F06D18EE04F4B4A
:102434001B6813F0020F00F08B804C498B6823F06B
:10244400030313438B60FEF767FC06466368012BA6
:102454000ED106E0FEF760FC801B41F288339842FF
:1024640078D8424B9B6803F00C03042BF2D12DE087
:10247400022B0ED106E0FEF74FFC801B41F288339D
:10248400984269D8394B9B6803F00C03082BF2D1AE
:102494001CE0032B15D106E0FEF73EFC801B41F245
:1024A400883398425AD8314B9B6803F00C030C2BA9
:1024B400F2D10BE0FEF730FC801B41F288339842E6
:1024C4004ED82A4B9B6813F00C0FF3D1264B1B6894
:1024D40003F00F039D4207D2EAB2234B1A701B6824
:1024E40003F00F039D423DD1236813F0040F06D07F
:1024F4001E498B6823F4E052E36813438B6023681E
:1025040013F0080F07D0194A936823F46043216934
:1025140043EAC1039360FFF705FF144B9B6803F084
:10252400F002F02393FAA3F3B3FA83F322FA03F34A
:102534000F4AD35CD8400F4B18600020FEF7B4FB61
:10254400002070BD012070BD012070BD012070BD50
:10255400012070BD032070BD032070BD032070BD39
:10256400032070BD012070BD003C024000380240D1
:10257400B027000800000020014B1868704700BF16
:102584000000002008B5FFF7F7FF084B9B6803F431
:10259400E0524FF4E05393FAA3F3B3FA83F322FA2D
:1025A40003F3034AD35CD84008BD00BF003802409F
:1025B400C027000808B5FFF7DFFF084B9B6803F44A
:1025C40060424FF4604393FAA3F3B3FA83F322FA1D
:1025D40003F3034AD35CD84008BD00BF003802406F
:1025E400C0270008074AD36823F4E0631B041B0CCC
:1025F400000200F4E060184340F0BF6040F4003093
:10260400D060704700ED00E030B4164BDB68C3F3D4
:102614000223C3F10704042C28BF04241D1D062D26
:1026240001D9DD1E00E00025012303FA04F4013C76
:102634002140A940AB40013B1A400A43002806DA76
:1026440000F00F001201D2B2074B1A5407E0120136
:10265400D2B200F1604000F5614080F8002330BC44
:10266400704700BF00ED00E014ED00E00138B0F168
:10267400807F0AD2064B5860F021064A82F8231064
:102684000020986007221A6070470120704700BF3D
:1026940010E000E000ED00E0042805D1054A1368CD
:1026A40043F0040313607047024A136823F00403E1
:1026B4001360704710E000E0704700BF08B5FFF7F3
:1026C400FBFF08BDDFF834D0002103E00C4B5B585E
:1026D400435004310B480C4B42189A42F6D30B4A30
:1026E40002E0002342F8043B094B9A42F9D3FEF777
:1026F4002BFB00F011F8FDF70FFF7047008001205D
:10270400D02700080000002004000020040000205E
:1027140054010020FEE7000070B50E4B0E4CE41A85
:10272400A41000251E46A54204D056F8253098472B
:102734000135F8E700F016F8084C094BE41AA41028
:1027440000251E46A54204D056F825309847013589
:10275400F8E770BDC8270008C8270008CC27000880
:10276400C8270008F8B500BFF8BC08BC9E467047EF
:0C277400F8B500BFF8BC08BC9E467047DA
:102780005372632F6D61696E2E6300004D505520AA
:10279000574F524B2046494E450A00004D50552098
:1027A0004E4F5420574F524B494E470A00000000ED
:1027B00000000000000000000102030406070809F1
:0827C000000000000102030407
:0427C800B90100084B
:0427CC00950100086B
:0427D0000024F400ED
:04000005080026C900
:00000001FF
